{
  "contractName": "MemberCard",
  "abi": [
    {
      "constant": true,
      "inputs": [],
      "name": "getMyCard",
      "outputs": [
        {
          "name": "",
          "type": "uint256"
        }
      ],
      "payable": false,
      "stateMutability": "view",
      "type": "function"
    },
    {
      "constant": true,
      "inputs": [
        {
          "name": "_address",
          "type": "address"
        }
      ],
      "name": "getMemberId",
      "outputs": [
        {
          "name": "",
          "type": "uint256"
        }
      ],
      "payable": false,
      "stateMutability": "view",
      "type": "function"
    },
    {
      "constant": true,
      "inputs": [
        {
          "name": "_id",
          "type": "uint256"
        }
      ],
      "name": "getMemberAddress",
      "outputs": [
        {
          "name": "",
          "type": "address"
        }
      ],
      "payable": false,
      "stateMutability": "view",
      "type": "function"
    }
  ],
  "bytecode": "0x608060405234801561001057600080fd5b5061025a806100206000396000f3fe608060405260043610610051576000357c0100000000000000000000000000000000000000000000000000000000900480632b4a9dda146100565780639029444a14610081578063c269014b146100fc575b600080fd5b34801561006257600080fd5b5061006b610161565b6040518082815260200191505060405180910390f35b34801561008d57600080fd5b506100ba600480360360208110156100a457600080fd5b81019080803590602001909291905050506101a8565b604051808273ffffffffffffffffffffffffffffffffffffffff1673ffffffffffffffffffffffffffffffffffffffff16815260200191505060405180910390f35b34801561010857600080fd5b5061014b6004803603602081101561011f57600080fd5b81019080803573ffffffffffffffffffffffffffffffffffffffff1690602001909291905050506101e5565b6040518082815260200191505060405180910390f35b6000600160003373ffffffffffffffffffffffffffffffffffffffff1673ffffffffffffffffffffffffffffffffffffffff16815260200190815260200160002054905090565b60006002600083815260200190815260200160002060009054906101000a900473ffffffffffffffffffffffffffffffffffffffff169050919050565b6000600160008373ffffffffffffffffffffffffffffffffffffffff1673ffffffffffffffffffffffffffffffffffffffff16815260200190815260200160002054905091905056fea165627a7a72305820441a0098c7508bce14be524899e111dfbc213f05a20bb9d206ce70ecd5b2f50c0029",
  "source": "pragma solidity ^0.5.0;\n\ncontract MemberCard {\n\n  mapping(address => bool) private isAddress;\n  mapping(address => uint256) private idToAddress;\n  mapping(uint256 => address) private addressToId;\n\n  modifier IsAddress() {\n    require(isAddress[msg.sender] != true);\n    _;\n  }\n\n  function issueMemberCard(uint256 _id) internal IsAddress {\n    isAddress[msg.sender] = true;\n    idToAddress[msg.sender] = _id;\n    addressToId[_id] = msg.sender;\n  }\n\n  function getMyCard()public view returns(uint256) {\n    return idToAddress[msg.sender];\n  }\n\n  function getMemberId(address _address) public view returns(uint256) {\n    return idToAddress[_address];\n  }\n\n  function getMemberAddress(uint256 _id)public view returns(address) {\n    return addressToId[_id];\n  }\n}",
  "sourcePath": "/Users/sugimura/ERC721-reward/contracts/MemberCard.sol",
  "compiler": {
    "name": "solc",
    "version": "0.5.1+commit.c8a2cb62.Emscripten.clang"
  },
  "schemaVersion": "3.0.0",
  "updatedAt": "2019-01-08T16:07:36.847Z",
  "devdoc": {
    "methods": {}
  },
  "userdoc": {
    "methods": {}
  }
}